:020000041A00E0
:1000000000800010250D001A7901001A7B01001AEA
:100010007D01001A7F01001A8101001A6A6BFF53EB
:10002000000000000000000000000000012B001A8A
:100030008501001A00000000A12B001A052C001AEF
:10004000D52D001ABB01001ABB01001A00000000E8
:10005000BB01001ABB01001ABB01001ABB01001A48
:100060007946001ABB01001ABB01001ABB01001A35
:100070002543001A6543001AA543001AE943001AF4
:10008000BB01001ABB01001ABB01001ABB01001A18
:10009000BB01001ABB01001ABB01001ABB01001A08
:1000A000BD01001ABB01001A6942001A7342001A0E
:1000B000BB01001ABB01001ABB01001ABB01001AE8
:1000C000FD05001A5106001AA506001AF906001AC5
:1000D0004D07001AA107001ABB01001ABB01001A44
:1000E000BB01001ABB01001ABB01001ABB01001AB8
:1000F00000000000BB01001ABB01001ABB01001A7E
:1001000000000000BB01001ABB01001ABB01001A6D
:10011000BB01001A1C64001A000000104801000016
:100120001C64001A00000810000000001C64001A83
:1001300000000020000000001C64001A0080002065
:10014000000000001C64001A00C000200000000035
:10015000480100101C2B00000000081000000000E7
:1001600000000020000000000080002000000000CF
:1001700000C0002000000000FEE7FEE7FEE7FEE70B
:10018000FEE7FEE7FEE7FEE7FEE7002393420AD222
:1001900010B450F8044B41F8044B04339342F8D3A5
:1001A0005DF8044B7047704700238B4204D2002255
:1001B00040F8042B0433F8E77047FEE708B5002049
:1001C00003F05AFE08BDFFFFFFFFFFFFFFFFFFFF29
:1001D000FFFFFFFFFFFFFFFFFFFFFFFFFFFFFFFF2F
:1001E000FFFFFFFFFFFFFFFFFFFFFFFFFFFFFFFF1F
:1001F000FFFFFFFFFFFFFFFFFFFFFFFFFFFFFFFF0F
:10020000FFFFFFFFFFFFFFFFFFFFFFFFFFFFFFFFFE
:10021000FFFFFFFFFFFFFFFFFFFFFFFFFFFFFFFFEE
:10022000FFFFFFFFFFFFFFFFFFFFFFFFFFFFFFFFDE
:10023000FFFFFFFFFFFFFFFFFFFFFFFFFFFFFFFFCE
:10024000FFFFFFFFFFFFFFFFFFFFFFFFFFFFFFFFBE
:10025000FFFFFFFFFFFFFFFFFFFFFFFFFFFFFFFFAE
:10026000FFFFFFFFFFFFFFFFFFFFFFFFFFFFFFFF9E
:10027000FFFFFFFFFFFFFFFFFFFFFFFFFFFFFFFF8E
:10028000FFFFFFFFFFFFFFFFFFFFFFFFFFFFFFFF7E
:10029000FFFFFFFFFFFFFFFFFFFFFFFFFFFFFFFF6E
:1002A000FFFFFFFFFFFFFFFFFFFFFFFFFFFFFFFF5E
:1002B000FFFFFFFFFFFFFFFFFFFFFFFFFFFFFFFF4E
:1002C000FFFFFFFFFFFFFFFFFFFFFFFFFFFFFFFF3E
:1002D000FFFFFFFFFFFFFFFFFFFFFFFFFFFFFFFF2E
:1002E000FFFFFFFFFFFFFFFFFFFFFFFFFFFFFFFF1E
:1002F000FFFFFFFFFFFFFFFFFFFFFFFFFFFFFFFF0E
:1003000010B582B0002101911E4C01AAA06801F035
:100310007BFA207803F0D2FE237C834210D001A91F
:10032000184B986801F096F8019B3BB1164B4FF0C3
:1003300080521A60BFF34F8FBFF36F8F02B010BDB2
:10034000522813D0492814D04E2816D04728E6D179
:1003500000230C4A13740D4A13700D4805F028FB56
:1003600001A90C4B186801F075F8D8E749222274EE
:10037000E8E7044B4E221A74E6E7024B47221A7450
:10038000E4E700BFE82B001004ED00E0E42B0010D0
:10039000905D001A002C001010B582B0C4B208495C
:1003A000204603F056FF4FF47A720023CDE9002374
:1003B00004220449204603F022FF02B010BD00BF12
:1003C000805D001A885D001A10B582B0C4B2084979
:1003D000204603F03EFF4FF47A720023CDE900235C
:1003E00004220449204603F00AFF02B010BD00BFFA
:1003F000745D001A885D001A10B582B0C4B2084955
:10040000204603F026FF4FF47A720023CDE9002343
:1004100004220449204603F0F2FE02B010BD00BFE2
:10042000685D001A885D001A10B5044641680078BE
:1004300003F058FE0023164A1946207803F0C8FD41
:100440000121207803F07CFD2078FFF7A5FF90B113
:10045000104805F0ADFA2078FFF7B6FF78B10E48E6
:1004600005F0A6FA2078FFF7C7FF60B10B4805F04A
:100470009FFA012010BD0A4805F09AFAEBE70948F7
:1004800005F096FAEEE7084805F092FAF1E700BFAA
:100490000103001AA45D001ADC5D001A1C5E001A3C
:1004A000C45D001A045E001A385E001A2B4AD2F8A6
:1004B000003E23F0FF0343F00403C2F8003E284B44
:1004C000196821F00101196001215961D2F8001E5B
:1004D00021F47F4141F48061C2F8001E196821F0C7
:1004E0000201196002219960D2F8001E21F47F01F7
:1004F00041F40021C2F8001E196821F004011960BE
:1005000004215961D2F8001E21F07F4141F00061C1
:10051000C2F8001E196821F00801196008219960CD
:10052000D2F8041E21F0FF0141F00901C2F8041EB7
:10053000196821F01001196010215961D2F8041EC8
:1005400021F47F4141F41061C2F8041E1A6822F0C0
:1005500020021A6020229A60704700BF00600840A5
:10056000007008400D4BA02283F820230121596020
:1005700083F821230221596083F822230421596042
:1005800083F823230821596083F82423102159601C
:1005900083F8252320225A60704700BF00E100E065
:1005A000154B0122C3F88420BFF34F8FBFF36F8F29
:1005B0000222C3F88420BFF34F8FBFF36F8F042252
:1005C000C3F88420BFF34F8FBFF36F8F0822C3F8A7
:1005D0008420BFF34F8FBFF36F8F1022C3F88420A6
:1005E000BFF34F8FBFF36F8F2022C3F88420BFF378
:1005F0004F8FBFF36F8F704700E100E000B583B00D
:10060000002301930F4B1B6A13F0010F0CD1019BC8
:100610003BB10D4B4FF080521A60BFF34F8FBFF3C9
:100620006F8F03B05DF804FB064B01225A62022370
:100630008DF80030002301AA69460448406800F0A4
:10064000A2FEE4E70070084004ED00E0CC2B0010AF
:1006500000B583B0002301930F4BDB6913F0020F49
:100660000CD1019B3BB10D4B4FF080521A60BFF390
:100670004F8FBFF36F8F03B05DF804FB064B022270
:100680005A6204238DF80030002301AA6946044809
:10069000406800F078FEE4E70070084004ED00E0F8
:1006A000CC2B001000B583B0002301930F4B1B6AC5
:1006B00013F0040F0CD1019B3BB10D4B4FF0805256
:1006C0001A60BFF34F8FBFF36F8F03B05DF804FB69
:1006D000064B04225A6202238DF8003000236A443C
:1006E00069460448C06800F04EFEE4E70070084028
:1006F00004ED00E0CC2B001000B583B00023019383
:100700000F4BDB6913F0080F0CD1019B3BB10D4B74
:100710004FF080521A60BFF34F8FBFF36F8F03B05B
:100720005DF804FB064B08225A6204238DF8003062
:10073000002301AA69460448C06800F024FEE4E7EB
:100740000070084004ED00E0CC2B001000B583B031
:10075000002301930F4B1B6A13F0100F0CD1019B68
:100760003BB10D4B4FF080521A60BFF34F8FBFF378
:100770006F8F03B05DF804FB064B10225A62022310
:100780008DF80030002301AA69460448406900F052
:10079000FAFDE4E70070084004ED00E0CC2B001007
:1007A00000B583B0002301930F4BDB6913F0200FDA
:1007B0000CD1019B3BB10D4B4FF080521A60BFF33F
:1007C0004F8FBFF36F8F03B05DF804FB064B202201
:1007D0005A6204238DF80030002301AA69460448B8
:1007E000406900F0D0FDE4E70070084004ED00E04F
:1007F000CC2B001008B503F04DFF0948052303700A
:100800004FF4E133436052230374FFF70DFEFFF70B
:100810004DFE044800F0FCF801F010FBFEE700BFBD
:10082000E82B0010CC2B001010B582B00446012339
:10083000437003788DF8043003E09DF80030022BFC
:1008400013D0324B1B79012BFBD14FF0FF3269469D
:10085000606800F059FE0028F3D06378012BECD0DB
:10086000032B1ED001236370EBE7142269466068F6
:1008700000F04AFE0028E4D1032363704FF0FF31FB
:10088000234B986800F0EEFE0128DAD1214805F0EC
:100890008FF800231A4619461D48806800F09CFC1A
:1008A000CFE79DF80030042BCBD114226946606855
:1008B00000F02AFE0028C4D1012363704FF0FF31FD
:1008C000134B986800F0CEFE012810D000234FF0A3
:1008D000FF3201A91048006800F07EFC00234FF0B1
:1008E000FF3201A90D48006800F076FCA9E79DF8E9
:1008F000041001310A4804F0D5FF00231A461946B6
:100900000348806800F068FCE0E700BF002C00109E
:10091000E82B0010C05F001AFC2B0010082C001000
:10092000DC5F001A00B583B02349002003F0E4FC2B
:10093000082305220221102004F06CF8002004F0A6
:100940004CF804F041F84FF0FF321C491C4B18687A
:1009500000F0DAFD0028F6D04FF0FF31194B98680F
:1009600000F080FE0128EED1174B6C4693E803009F
:1009700084E80300114B1B7803EB83035A001349EF
:100980001144204605F05FF804F01EF800210846E7
:1009900003F0F2FF0E4804F02AF80121002003F0D2
:1009A000EBFF204604F023F800231A4619460548B9
:1009B000806800F011FCC6E7A0860100E42B00105F
:1009C000082C0010E82B0010905F001A2C0000107B
:1009D0000000001010B582B001248DF804402146BB
:1009E0002B2003F013FE21460B2003F00FFE002303
:1009F0004FF0FF3201A90448006800F0EDFB034806
:100A000004F0D6FF02B010BD082C00107C5F001A65
:100A100070B582B0064601210B2003F021FD0322B0
:100A200000E02246531EDBB25CB27AB106EBC4058D
:100A300006F8343000220421052000F0A5FB686090
:100A40000028EED13D4804F0B3FFEAE7002405E0BA
:100A5000611C3B4804F026FF0134E4B2022C0DD89F
:100A6000002301930123009306EBC403B42235490C
:100A7000354801F0B0F90128EED1E9E700230193F0
:100A800001220092B4223149314801F0A4F9012831
:100A900037D00023019301220092B4222D492E4821
:100AA00001F099F9012830D000230193012200922E
:100AB000B4222A492A4801F08EF9012829D00022BF
:100AC0000121032000F060FB264B186028B30022B0
:100AD0000121032000F058FB234B186008B30322C8
:100AE0000021012000F050FB204B1860E8B10120EC
:100AF00000F03EFC1E4B9860D8B1FFF76BFF02B0D0
:100B000070BD1C4804F054FFC3E71B4804F050FFBD
:100B1000CAE71A4804F04CFFD1E7194804F048FF2F
:100B2000D5E7184804F044FFD9E7174804F040FF20
:100B3000DDE7164804F03CFFDFE700BF605E001A07
:100B4000905E001A845E001A2908001AA85E001A36
:100B5000390C001AC85E001AD90C001AEC5E001A93
:100B60002509001A082C0010FC2B0010002C001086
:100B7000E82B0010B45E001AD45E001AF85E001A6A
:100B80000C5F001A285F001A445F001A645F001AA5
:100B900010B504464379032B09D8DFE803F00209B6
:100BA000162E01212D2003F031FDFFF7DBFC10BDD7
:100BB00001212A2003F02AFD00212B2003F026FD2D
:100BC00000210B2003F022FDF1E700212A2003F091
:100BD0001DFD01212B2003F019FD00212D2003F024
:100BE00015FD01210B2003F011FD00232371114B92
:100BF00052221A74FFF7D4FCD9E700212B2003F00E
:100C000005FD00212A2003F001FD01212C2003F025
:100C1000FDFC00212D2003F0F9FC01210B2003F045
:100C2000F5FC00232371034B52221A74FFF7B8FC22
:100C3000BDE700BFE82B001000B583B019E09DF8B8
:100C400004209300981841000A461D4B1A441D4B7E
:100C500019441D4804F026FE00231A4619461B4875
:100C6000806800F0B9FA15E0194801234371FFF7D5
:100C70008FFF4FF0FF3201A9164B186800F044FCBB
:100C80000028F6D04FF0FF31104B986800F0EAFCD6
:100C90000128D4D09DF80430012B0AD05AB2002A82
:100CA000E2D0022BE5D10A4803234371FFF770FF1E
:100CB000DFE7074802234371FFF76AFFD9E700BF68
:100CC0002C0000100C000010985F001AE82B001098
:100CD000002C0010FC2B001000B583B00E4C4FF020
:100CE000FF31206800F0BEFC03238DF804300023A0
:100CF0004FF0FF3201A90948006800F06DFA0123A6
:100D00002371002363712046FFF742FF4FF47A708E
:100D100001F0F6F9E2E700BF002C0010082C0010EB
:100D20007047FFFF10B572B6194B1A4A1A600433A8
:100D3000194A1A60002305E0184A4FF0FF3142F8C3
:100D400023100133072BF7D962B6154B07E003F1E7
:100D50000C049A6859681868FFF717FA2346114A75
:100D60009342F4D306E01C46596854F8080BFFF789
:100D70001BFA23460C4A9342F5D303F053F804F0D0
:100D8000CFF9FFF7CDFFFFF735FD30BFFDE700BF1F
:100D9000003105400010DF10FFF7DF0180E200E0C6
:100DA0001401001A5001001A7801001A70477047A8
:100DB000092303604FF0FF307047582303604FF062
:100DC000FF307047022904D9092303604FF0FF3038
:100DD000704701207047582303604FF0FF30704781
:100DE00002291FD82DE9F0411D461746064600246A
:100DF000AC4211D202F0EDF8B0F1FF3FF8D004F1AF
:100E0000010838550D2803D00A2801D04446EFE7E1
:100E100002F0DFF8404603E0132333604FF0FF3069
:100E2000BDE8F081132303604FF0FF3070470229C3
:100E30000CD870B51D4616460024AC4204D2305D75
:100E400002F0C2F80134F8E7284670BD13230360AE
:100E50004FF0FF307047FFFF054B1B6823B1044B79
:100E60001868014419607047014B024A1A60F6E79E
:100E700048010010642C001038B5044610F0070F2C
:100E800002D020F00704083401F022F8134B1B684D
:100E90007BB1134B1B681C4441F6F77294420ED889
:100EA000A34210D301F0AEF8002500F0B5FD2846AE
:100EB00038BD0C4B23F00703084A1360E9E701F043
:100EC000A1F80025F1E7054A15681D44044B1C6094
:100ED00001F098F8002DEAD1E7E700BF4C010010BF
:100EE000502100105801001040B14FF0A00383F3CF
:100EF0001188BFF36F8FBFF34F8FFEE77047436AD0
:100F000023B1036B1868C0F10700704700207047D9
:100F100010B5044601F006FEA26BE36B9A4204D0C2
:100F2000002401F021FE204610BD0124F9E710B590
:100F3000044601F0F7FDA36B23B9012401F014FE70
:100F4000204610BD0024F9E770B504461646856BAF
:100F5000026C5AB903681BB100200135A56370BD4E
:100F6000406801F095FA00236360F6E76EB9806887
:100F700004F0FDF8226CA3681344A36062689342F6
:100F800019D32368A3600020E7E7C06804F0EFF8F6
:100F9000226C5242E3681344E36021688B4202D220
:100FA00063681A44E260022E01D00020D5E725B123
:100FB000013D0020D1E70020CFE70020CDE7026C03
:100FC00072B110B5C3681344C3604468A34201D32F
:100FD0000368C3600C46C168204604F0C8F810BD21
:100FE000704738B5054601F09DFD95F8454064B25F
:100FF00003E001F0D9F9013C64B2002C08DD6B6A12
:1010000033B105F1240001F03BF90028F3D0F0E7FB
:10101000FF2385F8453001F0A7FD01F083FD95F829
:10102000444064B203E001F0BFF9013C64B2002C1B
:1010300008DD2B6933B105F1100001F021F900281A
:10104000F3D0F0E7FF2385F8443001F08DFD38BD83
:1010500038B5E0B104460D4601F064FD2168E26B4D
:10106000236C03FB021060600020A063A160013AC2
:1010700002FB0313E360FF2384F8443084F8453017
:10108000EDB9236963B901F06FFD012038BD4FF060
:10109000A00383F31188BFF36F8FBFF34F8FFEE779
:1010A00004F1100001F0ECF80028ECD0084B4FF0F0
:1010B00080521A60BFF34F8FBFF36F8FE3E704F1E5
:1010C000100000F034FC04F1240000F030FCDAE7FA
:1010D00004ED00E038B51D46049C0B4649B9246078
:1010E000E063236401212046FFF7B2FF84F84C50EF
:1010F00038BD2260F4E740B94FF0A00383F31188B4
:10110000BFF36F8FBFF34F8FFEE710B584B0044677
:1011100053B192B189B94FF0A00383F31188BFF3A3
:101120006F8FBFF34F8FFEE74FF0A00383F311885B
:10113000BFF36F8FBFF34F8FFEE76AB1502003906C
:101140000398502813D04FF0A00383F31188BFF306
:101150006F8FBFF34F8FFEE70029EFD04FF0A00352
:1011600083F31188BFF36F8FBFF34F8FFEE72046E5
:101170001C46012384F8463000949DF81830FFF790
:10118000A9FF204604B010BD40B94FF0A00383F37F
:101190001188BFF36F8FBFF34F8FFEE7F0B583B0B9
:1011A0000646B1B101FB00F017460C465030FFF780
:1011B00063FE054650B1002380F8463000903B4660
:1011C00000F1500221463046FFF784FF284603B065
:1011D000F0BD0020E8E7FFFFF0B585B0019278B1DF
:1011E0000446B1B1022B20D1E26B012A1DD04FF091
:1011F000A00383F31188BFF36F8FBFF34F8FFEE718
:101200004FF0A00383F31188BFF36F8FBFF34F8FAD
:10121000FEE7026C002AE5D04FF0A00383F31188AB
:10122000BFF36F8FBFF34F8FFEE71E460F4601F0EF
:10123000C1F850B9019B53B14FF0A00383F311885B
:10124000BFF36F8FBFF34F8FFEE700253BE0002514
:1012500039E0324639462046FFF776FE636A6BB9BD
:1012600038B13C4B4FF080521A60BFF34F8FBFF341
:101270006F8F01F079FC012005B0F0BD04F124006E
:1012800000F0FEFF0028F4D0324B4FF080521A607D
:10129000BFF34F8FBFF36F8FEBE701F065FC0020CA
:1012A000EAE702A801F032F8012519E0002384F8EA
:1012B000443021E0002384F8453023E02046FFF746
:1012C00090FE00F09FFE01F02DFCA26BE36B9A42B2
:1012D000BFD3022EBDD0019B002BDED0002DE0D06D
:1012E00001F042FC00F0F4FD01F01CFC94F84430E5
:1012F0005BB2B3F1FF3FD9D094F845305BB2B3F1A4
:10130000FF3FD7D001F030FC01A902A801F00AF894
:10131000C8B92046FFF7FCFD0028CFD0019904F1A1
:10132000100000F079FF2046FFF75BFE00F06AFE38
:101330000028C8D1074B4FF080521A60BFF34F8F7F
:10134000BFF36F8FBFE72046FFF74BFE00F05AFE5A
:10135000002091E704ED00E048B108B500214160AC
:101360000160C1600B460A46FFF736FF08BD7047B3
:1013700010B5024600210120FFF706FF0446FFF7E3
:10138000EBFF204610BD2DE9F84378B10446B1B11A
:10139000022B20D1E06B01281DD04FF0A00383F376
:1013A0001188BFF36F8FBFF34F8FFEE74FF0A0039D
:1013B00083F31188BFF36F8FBFF34F8FFEE7006C8D
:1013C0000028E5D04FF0A00383F31188BFF36F8F9F
:1013D000BFF34F8FFEE71F469046894601F0CCFCD5
:1013E000EFF311864FF0A00383F31188BFF36F8FE3
:1013F000BFF34F8FA26BE36B9A4206D3022F04D048
:10140000002086F31188BDE8F88394F845506DB24A
:101410003A4649462046FFF797FDB5F1FF3F05D014
:101420006B1C5BB284F845300120EAE7636A0BB9B4
:101430000120E6E704F1240000F022FF30B1B8F10A
:10144000000F05D00120C8F80000DAE70120D8E736
:101450000120D6E760B170B50446036C8BB14FF044
:10146000A00383F31188BFF36F8FBFF34F8FFEE7A5
:101470004FF0A00383F31188BFF36F8FBFF34F8F3B
:10148000FEE70368F3B10E4601F076FCEFF3118539
:101490004FF0A00383F31188BFF36F8FBFF34F8F1B
:1014A000A26BE36B934226D994F845305BB20132CC
:1014B000A263B3F1FF3F11D001335BB284F8453032
:1014C000012019E04368002BDDD04FF0A00383F327
:1014D0001188BFF36F8FBFF34F8FFEE7636A0BB9BD
:1014E000012009E004F1240000F0CAFE38B146B141
:1014F0000120306000E0002085F3118870BD0120DC
:10150000FAE70120F8E7FFFFF0B585B0019280B15E
:101510000446B9B10F4600F04DFFF8B9019BFBB18D
:101520004FF0A00383F31188BFF36F8FBFF34F8F8A
:10153000FEE74FF0A00383F31188BFF36F8FBFF373
:101540004F8FFEE7036C002BE4D04FF0A00383F332
:101550001188BFF36F8FBFF34F8FFEE700263EE089
:1015600000263CE039462046FFF729FD013DA563F2
:10157000236923B901F0F8FA012005B0F0BD04F1A8
:10158000100000F07DFE0028F4D0354B4FF0805263
:101590001A60BFF34F8FBFF36F8FEBE701F0E4FAF0
:1015A0000020EAE702A800F0B1FE012621E00023B6
:1015B00084F8443029E0002384F845302BE02046AD
:1015C000FFF70FFD00F01EFD09E02046FFF709FDC3
:1015D00000F018FD2046FFF7AAFC00283DD101F0DD
:1015E000A1FAA56B002DBDD1019B002BD6D0002EFA
:1015F000D8D001F0B9FA00F06BFC01F093FA94F83E
:1016000044305BB2B3F1FF3FD1D094F845305BB2C8
:10161000B3F1FF3FCFD001F0A7FA01A902A800F073
:1016200081FE0028D1D12046FFF781FC0028C6D0DA
:10163000019904F1240000F0EFFD2046FFF7D1FCF2
:1016400000F0E0FC0028CAD1054B4FF080521A6030
:10165000BFF34F8FBFF36F8FC1E700208DE700BF4F
:1016600004ED00E070B584B0019158B10446036CFC
:101670008BB14FF0A00383F31188BFF36F8FBFF3DB
:101680004F8FFEE74FF0A00383F31188BFF36F8FF6
:10169000BFF34F8FFEE700F08DFE50B9019B5BB1A9
:1016A0004FF0A00383F31188BFF36F8FBFF34F8F09
:1016B000FEE700252E4654E000252E4651E0013B72
:1016C000A36323683BB123694BB901F04DFA0125AF
:1016D000284604B070BD00F095FF6060F3E704F1A8
:1016E000100000F0CDFD0028EFD0464B4FF08052A7
:1016F0001A60BFF34F8FBFF36F8FE6E745B14FF02E
:10170000A00383F31188BFF36F8FBFF34F8FFEE702
:1017100001F02AFADCE702A800F0F8FD01262AE031
:10172000002384F8443032E0002384F8453034E06C
:1017300001F0F8F9606800F04DFE054601F014FA7A
:101740003BE02046FFF74DFC00F05CFC09E0204642
:10175000FFF747FC00F056FC2046FFF7E8FB0028A7
:1017600040D101F0DFF9A36B002BA8D1019B002B26
:10177000C4D0002ECFD001F0F7F900F0A9FB01F0A2
:10178000D1F994F844305BB2B3F1FF3FC8D094F87C
:1017900045305BB2B3F1FF3FC6D001F0E5F901A9D6
:1017A00002A800F0BFFD0028D1D12046FFF7BFFB03
:1017B0000028C6D02368002BBAD0019904F1240078
:1017C00000F02AFD2046FFF70CFC00F01BFC00286F
:1017D000C7D10C4B4FF080521A60BFF34F8FBFF34D
:1017E0006F8FBEE70DB9002572E701F09BF9204627
:1017F000FFF785FB0146606800F0A4FE01F0B4F934
:10180000F1E700BF04ED00E02DE9F843C8B104465C
:1018100001B31746894601F0AFFAEFF311864FF096
:10182000A00383F31188BFF36F8FBFF34F8FD4F8FA
:101830003880B8F1000F19D1002086F31188BDE877
:10184000F8834FF0A00383F31188BFF36F8FBFF3CA
:101850004F8FFEE7036C002BDBD04FF0A00383F328
:101860001188BFF36F8FBFF34F8FFEE794F844509A
:101870006DB249462046FFF7A2FB08F1FF33A36390
:10188000B5F1FF3F05D06B1C5BB284F844300120FA
:10189000D3E723690BB90120CFE704F1100000F072
:1018A000EFFC18B127B101203860C6E70120C4E77A
:1018B0000120C2E70023072B0CD8074A52F8332037
:1018C0000AB10133F7E7044A42F8331002EBC303CD
:1018D00058607047704700BF102C001070B5044668
:1018E0000D46164601F01EF994F844305BB2B3F190
:1018F000FF3F0DD094F845305BB2B3F1FF3F0BD002
:1019000001F032F9A36B5BB12046FFF76AFB70BDB3
:10191000002384F84430EDE7002384F84530EFE7F6
:101920003246294604F1240000F08EFCECE700F179
:10193000080343604FF0FF328260C36003610023FD
:101940000360704700230361704743684B609A68E7
:101950008A605160996008610368013303607047D1
:1019600030B40D68B5F1FF3F02D000F1080202E08B
:10197000026904E01A4653681C68AC42FAD95368FD
:101980004B6099608A6051600861036801330360AD
:1019900030BC70470369416882688A604168516061
:1019A0005A68824206D0002202611A68013A1A601F
:1019B0001868704782685A60F5E7FFFF034B0360C1
:1019C000034B0B605A231360704700BF5C28001064
:1019D00054210010034B0360034B0B604FF4B473AE
:1019E00013607047BC280010BC22001010B582B0F4
:1019F0000C4601900023009301F094F801992246CF
:101A0000044803F04FFF009B002BFCD001F0ACF822
:101A100002B010BD7460001A08B5044803F0C8FF96
:101A200003492C20FFF7E2FF08BD00BF0060001A49
:101A30002460001A08B5044803F034FF034950201D
:101A4000FFF7D4FF08BD00BF4460001A2460001AED
:101A5000084B1B681B6823B9074B4FF0FF321A6015
:101A60007047044B1B68DB68DB685A68024B1A60DE
:101A7000704700BF20290010F42900102DE9F0471D
:101A800081460D4617469A46089EDDF824800A9C3A
:101A90009200A521206B03F078FB236B07F18042B5
:101AA000013A03EB820727F00707676400230F2B37
:101AB00006D8EA5CE11881F834200AB10133F6E770
:101AC000002384F84330062E00D90626E6622665F8
:101AD00000256565201DFFF735FF04F11800FFF7AD
:101AE00031FF2461C6F10706A6616462A56584F82A
:101AF0005C5052464946384600F0EAFF2060B8F193
:101B0000000F01D0C8F80040BDE8F08738B50024C8
:101B1000062C08D804EB840293000E481844FFF703
:101B200006FF0134F4E70C4D2846FFF700FF0B4C8D
:101B30002046FFF7FCFE0A48FFF7F9FE0948FFF7C9
:101B4000F6FE0948FFF7F3FE084B1D60084B1C60CA
:101B500038BD00BF28290010CC290010E029001052
:101B6000FC290010282A0010142A00102029001037
:101B70002429001010B5044600F0D4FF214A136850
:101B800001331360204B1B685BB1204B1B686BB9A2
:101B90001D4B1B68DA6AE36A9A4207D81A4B1C602D
:101BA00004E0194B1C601368012B27D0184A1368F6
:101BB00001331360A364E36A01229A40154908685F
:101BC00002430A6003EB83039A00211D124810446C
:101BD000FFF7BBFE00F0C8FF0C4B1B686BB10A4B54
:101BE0001B68DA6AE36A9A4207D20C4B4FF08052C4
:101BF0001A60BFF34F8FBFF36F8F10BDFFF786FFE3
:101C0000D4E700BFB42900101C290010102A0010CE
:101C1000C4290010C82900102829001004ED00E094
:101C200010B5044690F85D3063B1012B11D0022B42
:101C30000ED04FF0A00383F31188BFF36F8FBFF373
:101C40004F8FFEE7006BFFF74FF92046FFF74CF987
:101C500010BDFFF749F9FBE70F4B1B68D3B110B577
:101C600000F060FF0D4BDB68DC68201DFFF792FE83
:101C70000B4A1368013B1360074A1368013B13606A
:101C800000F072FF2046FFF7CBFF034B1B68002BD1
:101C9000E6D110BD704700BFB8290010282A0010F7
:101CA000B429001008B5FFF7D7FF064B1B68012BBE
:101CB000F9D9054B4FF080521A60BFF34F8FBFF335
:101CC0006F8FF0E72829001004ED00E070B504469E
:101CD0000E461D4B1D681D4B18680430FFF75AFE59
:101CE00050B91A4B1B68DA6A012303FA02F2184949
:101CF0000B6823EA02030B60B4F1FF3F0DD02C44C4
:101D0000124B1B685C60A54210D9124B18680F4B30
:101D100019680431FFF724FE70BD002EEFD00B4B85
:101D2000196804310C48FFF710FEF5E70B4B1868F3
:101D3000064B19680431FFF713FE094B1B68A342D9
:101D4000EAD9074B1C60E7E73C2A00101C29001069
:101D5000C829001024290010142A0010202900107E
:101D6000F429001070B586B00B9D0C9C75B1B4B110
:101D700060260496049E602E1AD04FF0A00383F3D1
:101D80001188BFF36F8FBFF34F8FFEE74FF0A003B3
:101D900083F31188BFF36F8FBFF34F8FFEE74FF0D0
:101DA000A00383F31188BFF36F8FBFF34F8FFEE75C
:101DB0002563022584F85D5000250395029405AD46
:101DC00001950A9D0095FFF759FE2046FFF7D2FEC8
:101DD000059806B070BD2DE9F04385B007468846EA
:101DE000154699469000FFF747F8F8B1064660207F
:101DF000FFF742F80446A8B10663E4B1002384F873
:101E00005D30039302940D9B01930C9B00934B4612
:101E10002A4641463846FFF731FE2046FFF7AAFE24
:101E2000012005E03046FFF75FF8E6E74FF0FF30AE
:101E300005B0BDE8F0834FF0FF30F9E710B588B08A
:101E400000240594069407AA06A905A8FFF7B6FD85
:101E5000059B0293069B019300942346079A17491A
:101E60001748FFF77FFF40B100F046FC012806D07D
:101E7000B0F1FF3F18D008B010BD0020F6E74FF0DA
:101E8000A00383F31188BFF36F8FBFF34F8F0D4B08
:101E90004FF0FF321A600C4B01221A600B4B0022EC
:101EA0001A6000F0E1FEE6E74FF0A00383F311882B
:101EB000BFF36F8FBFF34F8FFEE700BFB460001A10
:101EC000A51C001AF4290010102A00103C2A00104A
:101ED000024A136801331360704700BFC029001025
:101EE000014B1868704700BF3C2A0010F8B53A4B08
:101EF0001B68002B64D1394B1D6801351D60C5B9C5
:101F0000374B1B681B6843B14FF0A00383F3118864
:101F1000BFF36F8FBFF34F8FFEE7314A1168314B2C
:101F2000186810601960304A136801331360FFF7B6
:101F30008FFD2E4B1B68AB4238D900242C4B1B68FD
:101F4000DB6A03EB83039A002A4B9B58012B3CD995
:101F500001243AE00124224B1B681B6843B3204B49
:101F60001B68DB68DE6873689D4226D3371D3846E0
:101F7000FFF710FDB36A1BB106F11800FFF70AFD69
:101F8000F36A01229A401C49086802430A6003EB85
:101F900083039A00394617481044FFF7D6FCF26ACB
:101FA000134B1B68DB6A9A42D4D2D4E70024D2E7F1
:101FB0000E4B4FF0FF321A60C0E70C4A1360BDE7CA
:101FC0000E4A13680133136000240D4B1B6803B1E4
:101FD00001242046F8BD00BFC02900103C2A001093
:101FE0002029001024290010F8290010F4290010DD
:101FF0001C29001028290010C8290010BC29001035
:10200000402A001038B5354B1B6843B94FF0A00388
:1020100083F31188BFF36F8FBFF34F8FFEE700F09C
:1020200081FD2E4B1A68013A1A601B68002B4DD1B6
:102030002B4B1B680BB9002449E00024294B1B687B
:102040001BB3284BDB68DC6804F11800FFF7A2FC27
:10205000251D2846FFF79EFCE36A01229A4022498B
:10206000086802430A6003EB83039A0029461F486D
:102070001044FFF76AFCE26A1D4B1B68DB6A9A4258
:10208000DCD31C4B01221A60D8E70CB1FFF7E0FC4F
:10209000194B1C6874B9174B1B68E3B1174B4FF011
:1020A00080521A60BFF34F8FBFF36F8F01240EE091
:1020B000013C07D0FFF71AFF0028F9D00D4B012291
:1020C0001A60F5E70C4B00221A60E4E7002400F0E8
:1020D0004BFD204638BD0024F9E700BFC0290010A1
:1020E000B4290010FC290010C8290010282900106C
:1020F0001C290010402A0010BC29001004ED00E04B
:1021000010B5A8B104460F4B1B6843B14FF0A003B4
:1021100083F31188BFF36F8FBFF34F8FFEE7FFF795
:10212000D7FE00212046FFF7D1FDFFF76BFF38B93E
:10213000054B4FF080521A60BFF34F8FBFF36F8F84
:1021400010BD00BFC029001004ED00E02D4B1B683E
:102150001BB12D4B01221A60704710B52A4B00228B
:102160001A602A4B1B681B6B1A68B2F1A53F03D19A
:102170005A68B2F1A53F1BD0244B18681968343156
:10218000FFF758FC224B1B68B3FA83F3DBB2C3F1B1
:102190001F0303EB83018A001E498A588AB94FF056
:1021A000A00383F31188BFF36F8FBFF34F8FFEE758
:1021B0009A68B2F1A53FDFD1DB68B3F1A53FDBD16F
:1021C000E0E714489A00D418A10001444C68646800
:1021D0004C601A44910008310844844209D003EB52
:1021E00083039A000B4B13445B68DA68074B1A6051
:1021F00010BD606803EB83029100064A0A445060F8
:10220000EDE700BFC0290010402A00101C29001073
:10221000C82900102829001058B110B50C46094BE8
:1022200019681831FFF79CFB01212046FFF74EFD8E
:1022300010BD4FF0A00383F31188BFF36F8FBFF37E
:102240004F8FFEE71C29001038B570B10C461546BB
:102250000A4A11681831FFF778FB0DB14FF0FF34CF
:1022600029462046FFF732FD38BD4FF0A00383F327
:102270001188BFF36F8FBFF34F8FFEE71C2900104B
:1022800038B5C368DC6824B304F118052846FFF7A5
:1022900081FB184B1B682BBB251D2846FFF77AFBDB
:1022A000E36A01229A401449086802430A6003EB7A
:1022B00083039A00294611481044FFF746FBE26A5F
:1022C0000F4B1B68DB6A9A4211D901200D4B186035
:1022D0000EE04FF0A00383F31188BFF36F8FBFF3BD
:1022E0004F8FFEE729460848FFF72FFBE7E700205E
:1022F00038BD00BFC0290010C829001028290010CF
:102300001C290010402A0010FC290010034B1B68F8
:102310000360034B1B684360704700BFF82900103F
:102320003C2A0010F8B5C8B1054601B30C4600F0D0
:10233000F9FB1B4B19686B68C81A2268B2F1FF3FA2
:1023400026D02F68174E3668B74201D08B4224D969
:10235000824215D80023236001241AE04FF0A00325
:1023600083F31188BFF36F8FBFF34F8FFEE74FF0FA
:10237000A00383F31188BFF36F8FBFF34F8FFEE786
:102380005B1A134423602846FFF7C0FF002400E0D7
:10239000002400F0E9FB2046F8BD0124F9E700BF66
:1023A0003C2A0010F8290010014B01221A607047E6
:1023B000402A0010054B1B6833B1054B1B680BB15D
:1023C000002070470220704701207047102A00103B
:1023D000C0290010002850D038B50446C26A2949E7
:1023E0000968C96A8A4240D28169002905DB25490A
:1023F0000968C96AC1F107018161606902EB820263
:102400009100214A0A44904205D01E4A1268D26ABD
:10241000E262012038BD251D2846FFF7BBFAA0B1B6
:10242000184B1B68DB6AE362012404FA03F21749C4
:10243000086802430A6003EB83039A0029461248A6
:102440001044FFF782FA2046E4E7E36A03EB8301D6
:102450008A000D498A58002AE2D101229A400B498C
:102460000B6823EA02030B60DAE7026D054B1B6879
:10247000DB6A9A4203D30020CCE70020704701209A
:10248000C8E700BF1C29001028290010C829001027
:1024900000284CD038B50446274A1268824208D03A
:1024A0004FF0A00383F31188BFF36F8FBFF34F8FFB
:1024B000FEE7426D42B94FF0A00383F31188BFF3EA
:1024C0006F8FBFF34F8FFEE7013A4265C06A216DFF
:1024D00088422ED00AB1002038BD251D2846FFF7BE
:1024E00059FA70B9E26A02EB82018B001349CB58AA
:1024F0003BB9012303FA02F211490B6823EA0203F4
:102500000B60236DE362C3F10702A261012404FAA8
:1025100003F20B49086802430A6003EB83039A0045
:10252000294606481044FFF710FA2046D4E7002059
:1025300070470020D0E700BF1C2900102829001098
:10254000C8290010002856D038B50446406D40B95F
:102550004FF0A00383F31188BFF36F8FBFF34F8F4A
:10256000FEE7226D8A4200D20A46E16A914201D01A
:10257000012800D038BD20480068A04232D0E26275
:10258000A069002802DBC2F10702A261636901EBC6
:1025900081018800194A02449342EBD1251D284647
:1025A000FFF7F8F970B9E26A02EB82018B00134978
:1025B000CB583BB9012303FA02F211490B6823EA15
:1025C00002030B60E36A01229A400D490868024346
:1025D0000A6003EB83039A00294608481044FFF77A
:1025E000B4F9C7E74FF0A00383F31188BFF36F8FEF
:1025F000BFF34F8FFEE770471C29001028290010F9
:10260000C8290010054B1B6823B1044B1A68536D91
:1026100001335365014B1868704700BF1C29001037
:10262000064B1A681368B3FA83F35B09036013B9A6
:10263000D368186870470020704700BF442A001014
:1026400008B54160006191420CD8D21A83699A4260
:1026500001D3012008BD011D094B1868FFF780F95F
:102660000020F7E79A4201D2994206D2011D054B9C
:102670001868FFF775F90020ECE70120EAE700BFD2
:10268000482A0010442A001030B583B000F04AFAFE
:10269000114B1B681BB100F067FA03B030BD0F4D42
:1026A0002846FFF744F90E4C2046FFF740F90D4B42
:1026B0001D600D4B1C60002300930C4B0C4A102135
:1026C0000A20FEF718FD044B18600028E3D00949E2
:1026D000FFF7F0F8DFE700BF682B0010EC2A0010CE
:1026E000002B0010442A0010482A0010182B00105C
:1026F0004C2A0010BC60001A10B588B0FFF7C4FF68
:10270000124B1B68CBB100240594069407AA06A9B6
:1027100005A8FFF75FF9059B0293069B019304232D
:1027200000932346079A0A490A48FFF71BFB0A4B06
:10273000186010B1012008B010BD4FF0A00383F362
:102740001188BFF36F8FBFF34F8FFEE7682B001028
:10275000C460001A3D2A001A6C2B0010C0B130B5BD
:1027600085B015460446174A106840B31A460091D2
:102770000195029405291CDCFFF71CFE022810D0ED
:1027800000231A4669460F480068FEF725FD14E04D
:102790004FF0A00383F31188BFF36F8FBFF34F8F08
:1027A000FEE70023089A694606480068FEF714FD14
:1027B00003E000236946FEF7E6FD05B030BD0020CA
:1027C000FBE700BF682B001070B582B01A4B1B6886
:1027D0001A6852B3DB681E68DC68251D2846FFF7BF
:1027E000D9F8636A20469847E369012BEED1A369C3
:1027F00033449E4207D26360246129460E4B186819
:10280000FFF7AEF8E2E7002100910B463246204682
:10281000FFF7A4FF0028D9D14FF0A00383F311885C
:10282000BFF36F8FBFF34F8FFEE7044A1068024972
:102830000860136002B070BD442A0010482A0010DE
:1028400038B50546FFF74CFB0446074B1B6883422F
:1028500005D800232B60044B1C60204638BDFFF7D1
:10286000B3FF01232B60F6E7142B001070B582B084
:1028700005460E46144B1B68DB68DC68201DFFF71D
:1028800089F8E369012B04D0636A2046984702B0B7
:1028900070BDA1692B46324629442046FFF7D0FE81
:1028A0000028F1D0002100910B462A462046FFF770
:1028B00055FF0028E8D14FF0A00383F31188BFF340
:1028C0006F8FBFF34F8FFEE7442A001070B582B0C0
:1028D00006460C46FFF7FCFA01A8FFF7B1FF019B83
:1028E0001BBB05460CB9B04218D22CB1114B1B686A
:1028F0001C68B4FA84F464092246711B0E4B1868F4
:10290000FEF7ECFFFFF77EFB88B90C4B4FF08052CF
:102910001A60BFF34F8FBFF36F8F08E0FFF772FBB2
:1029200029463046FFF7A2FF01E0FFF76BFB02B03C
:1029300070BD00BF482A0010682B001004ED00E0B5
:1029400030B589B006E007990698059B9847049B27
:10295000002B0BDA002204A9374B1868FEF7D4FDD0
:10296000002866D0049B002BF1DAECE7069C636933
:1029700013B1201DFFF70EF803A8FFF761FF049BBA
:10298000092BE7D801A252F823F000BFB529001A9D
:10299000B529001AB529001A5529001AFD29001A6F
:1029A000232A001AB529001AB529001A5529001A38
:1029B000FD29001A0599A5690B46024629442046BF
:1029C000FFF73EFE0028C5D0636A20469847E369BA
:1029D000012BBFD1A269002100910B46059802444A
:1029E0002046FFF7BBFE0028B4D14FF0A00383F3CD
:1029F0001188BFF36F8FBFF34F8FFEE70599A16179
:102A000031B10346024601442046FFF719FEA1E713
:102A10004FF0A00383F31188BFF36F8FBFF34F8F85
:102A2000FEE794F82C30002B94D12046FEF75CFA98
:102A300090E709B030BD00BF682B001000B583B02F
:102A400001A8FFF7EDFD0199FFF740FFFFF778FFC1
:102A5000F6E7FFFF82B0002301930D4B1B68B3F133
:102A6000FF3F08D04FF0A00383F31188BFF36F8FAF
:102A7000BFF34F8FFEE74FF0A00383F31188BFF33E
:102A80006F8FBFF34F8F019B002BFCD002B07047BC
:102A90005400001008480068006880F308884FF070
:102AA000000080F3148862B661B6BFF34F8FBFF3A6
:102AB0006F8F00DF00BF000008ED00E0DFF80C00C2
:102AC000016841F4700101607047000088ED00E08A
:102AD0004FF0807340F8043C21F0010140F8081CDD
:102AE000054B40F80C3C40F8202C6FF0020340F8F6
:102AF000243C4438704700BF552A001AFFFFFFFFEF
:102B0000074B19680868B0E8F04F80F30988BFF3F5
:102B10006F8F4FF0000080F311887047AFF3008093
:102B20001C2900104FF0A00383F31188BFF36F8FAF
:102B3000BFF34F8F0A4A136801331360012B00D093
:102B40007047084B1B6813F0FF0FF9D04FF0A0033C
:102B500083F31188BFF36F8FBFF34F8FFEE700BF82
:102B60005400001004ED00E0094B1B6843B94FF01E
:102B7000A00383F31188BFF36F8FBFF34F8FFEE77E
:102B8000013B034A13600BB983F31188704700BF00
:102B900054000010FFFFFFFFFFFFFFFFFFFFFFFFDD
:102BA000EFF30980BFF36F8F154B1A681EF0100FFB
:102BB00008BF20ED108A20E9F04F10602DE90900D0
:102BC0004FF0A00080F31188BFF34F8FBFF36F8FDA
:102BD000FFF7BCFA4FF0000080F3118809BC1968B8
:102BE0000868B0E8F04F1EF0100F08BFB0EC108A74
:102BF00080F30988BFF36F8F704700BFAFF3008089
:102C00001C29001008B54FF0A00383F31188BFF30F
:102C10006F8FBFF34F8FFFF769F918B1034B4FF078
:102C200080521A60002383F3118808BD04ED00E090
:102C3000084A0023136008490B60084B1B680849C9
:102C4000A1FB03139B09013B06490B60072313609B
:102C5000704700BF10E000E018E000E0502C0010CA
:102C6000D34D621014E000E03A4B1A683A4B9A4296
:102C700029D0384B1A68394B9A422DD010B582B002
:102C8000374B1A78D2B20192FF221A701B78DBB24E
:102C90008DF803309DF8033003F0A003314A137020
:102CA000314B07221A609DF8033013F0800F1CD0BF
:102CB0002D4A1368013B13609DF803305B00DBB2C3
:102CC0008DF80330EFE74FF0A00383F31188BFF3D3
:102CD0006F8FBFF34F8FFEE74FF0A00383F3118890
:102CE000BFF36F8FBFF34F8FFEE71F4B1B68042BA3
:102CF00008D04FF0A00383F31188BFF36F8FBFF3A9
:102D00004F8FFEE71B0203F4E063174A1360019B39
:102D1000DBB2134A1370154B1A6842F460021A6052
:102D20001A6842F060421A60FFF782FF0024104BDD
:102D30001C60FFF7C3FE0F4A136843F04043136063
:102D4000FFF7A8FEFFF702FAFFF784FE204602B065
:102D500010BD00BF00ED00E071C20F4170C20F4115
:102D600000E400E0702B0010742B001020ED00E058
:102D70005400001034EF00E0EFF305830F2B0FD960
:102D8000104A9B5CDBB2104A12789A4208D94FF085
:102D9000A00383F31188BFF36F8FBFF34F8FFEE75C
:102DA0000A4B1B6803F4E063094A1268934208D98E
:102DB0004FF0A00383F31188BFF36F8FBFF34F8FE2
:102DC000FEE77047F0E300E0702B00100CED00E030
:102DD000742B001008B5054B0122C3F88021044B69
:102DE0001B6813B1024B1B68984708BD00E100E067
:102DF000782B00100022052A19D870B40C4911F85C
:102E0000125001EB42014C780A4B05F5006653F86D
:102E100026100120A040014343F8261003EB451380
:102E2000002119550132052AE8D970BC7047704756
:102E3000D860001A00400F400023032B16D830B48E
:102E40000B4911F8132001EB43014D78094C02F5B1
:102E5000006254F822100120A84021EA000144F841
:102E600022100133032BEBD930BC7047704700BFF1
:102E7000D060001A00400F400023082B16D830B451
:102E80000B4911F8132001EB43014D78094C02F571
:102E9000006254F822100120A84021EA000144F801
:102EA00022100133082BEBD930BC7047704700BFAC
:102EB000E460001A00400F4010B582B0084C69462B
:102EC000204600F0D9F9074A6946204600F0F4F997
:102ED00000226946204600F008FA02B010BD00BF8B
:102EE00000300E40801A060010B50B4C204600F052
:102EF00057FE636823F004036360236823F0FF0335
:102F000043F0070323600549204600F02AFE63686A
:102F100043F00203636010BD00500C40A086010026
:102F200008B5002000F0F8FE044B40F60802C3F894
:102F3000842C0349002000F001FF08BD0060084018
:102F400040420F0010B5074C204600F0B9F84FF48E
:102F5000E131204600F0FEF80323E3600123E3653E
:102F600010BD00BF00100C40034B5B6913F0200F35
:102F7000FAD0014B1860704700100C40054B5B699C
:102F800013F0010F03D0034B1868C0B270474FF025
:102F9000FF30704700100C4008B5FFF7D3FF094819
:102FA00000F0BFFDFFF768FFFFF786FFFFF79CFF0C
:102FB000FFF7B6FFFFF71EFFFFF73EFF00F062FCD2
:102FC00008BD00BF00400F4008B5C0B2FFF7CCFFFE
:102FD00008BD08B5FFF7D2FF08BD08B5FFF7B2FF7F
:102FE00008BDFFFF00231C2B12D810B4094A02EBC6
:102FF000830112F823404A78488802EB44120649BC
:1030000041F8220001331C2BF0D95DF8044B7047C6
:10301000704700BF0061001A0060084010B5174AF1
:10302000D2F8203123F4704343F41043C2F8203126
:10303000D2F8243123F4704343F41043C2F824310E
:1030400001220F49062000F027FC00244CB10B4B55
:103050005A6822F00C025A605A6842F003025A6021
:1030600010BD084800EB840101238A78497810F8E4
:10307000240000F063FB0134E8E700BF00300440A7
:1030800000CB280CFC60001A08B5FFF7ABFFFFF778
:10309000C5FF08BD094B984209D003F580539842FB
:1030A00007D0A3F58023984205D000207047022066
:1030B0007047032070470120704700BF00100C408C
:1030C00030B583B00446FFF7E5FF01231A461946E1
:1030D0000E4D35F8100000F077FB0723A3600023A6
:1030E000E3656360E3602362E36463652365084B23
:1030F0009C4206D00323E3601023A362019B03B02C
:1031000030BD00232361A3690193F3E77C61001ABA
:103110000020084038B505460C46FFF7BBFF0C4BB6
:1031200033F8100000F088FB2301B0FBF3F3D9B2B1
:10313000EA6842F08002EA602960C3F307226A600D
:10314000EA6822F08002EA60B0FBF3F0000938BDC3
:103150007461001A2DE9F04F83B001908846FFF7A3
:1031600099FF324B33F8100000F066FB06464FF033
:10317000FF3701244FF0000BA246D9462AE0424215
:103180004B1C17E00AB31746AB46A24699460135D9
:10319000AC421ED933093007A4FB000104FB031124
:1031A000621908FB02F2002301F082FC02460B4682
:1031B0000028E4DB9742EAD3002BE8D0190CE6D1D3
:1031C000022BDFD8002DDDD0E1E71746AB46A24643
:1031D000994601341FB10F2C01D80025D8E7B9F169
:1031E000000F1ED0019A1146D36843F08003D360CC
:1031F0005FFA89F31360C9F307235360D36823F0A0
:103200008003D3604FEA0A13DBB20BF00F021343C3
:103210008B6233090AFB03F3DA4409FB0AF9B3FBB7
:10322000F9F9484603B0BDE8F08F00BF7461001A99
:10323000034B984201D0032070470420704700BF21
:1032400000400E4070B50D4614461E46FFF7F0FFD5
:1032500000F0F2FA55B104FB06F404EB4000640000
:10326000B0FBF4F0C0B20138C0B270BD04EB84030F
:1032700004EB4304F1E7FFFF38B505460C46FFF7C2
:10328000D7FF01231A46194600F09EFA0021E96093
:10329000084A2260217161710B232846FFF7D2FF93
:1032A000000240F400132079400400F46020184329
:1032B000286038BD801A060070B505460E460468C1
:1032C00024F46F2424F470640A600B79C3F10B03B7
:1032D000DBB24979FFF7B6FF44EA002033795B049B
:1032E00003F4602303432B6070BD08B50A710A68BC
:1032F000FFF7E2FF08BDFFFFF0B40B6813F0800F8B
:1033000002D023F040030B60074601253AE04B69E9
:1033100003FB02F3B3FBF5F31CE01C46B0EB040C1B
:1033200027D4674506D98D60771CCF600A618C6110
:10333000CB6167460132B2F5807F1DDC0C6814F06A
:10334000400FE4D0731C02FA03FC4B6903FB0CF33F
:10335000B3FBF5F3DFF838C06345EBD9DFF834C0D1
:10336000634509D814F0800FD7D1741C23FA04F4F4
:10337000D4E7CCF1000CD4E70136032E01DC0122A6
:10338000D9E70135042D01DC0026F6E7F0BC7047D3
:10339000FF5E4C0900D01213F0B599B005460C46FB
:1033A0005C22002101A801F0F0FE802300936369F4
:1033B000059323798DF8043069462846FFF79CFF72
:1033C000069BAB4227D0EB1A2ED41E46109B23F04F
:1033D000400310936369159323798DF8443010A945
:1033E0002846FFF789FF169BAB421FD0EB1A25D466
:1033F0001F462B4B9D4223D90E9BED1A33D4AE4270
:103400003BDCBE4231DC6D460FCD0FC495E80F00AA
:1034100084E80F0006E06D460FCD0FC495E80F005D
:1034200084E80F0019B0F0BD5B42CEE710AD0FCDC0
:103430000FC495E80F0084E80F00F3E75B42D7E77D
:103440004023089363690D9308A92846FFF754FFAA
:103450000E9BAB42D0D108AD0FCD0FC495E80F0045
:1034600084E80F00DEE76D42C9E710AD0FCD0FC451
:1034700095E80F0084E80F00D4E7AF4207DB08AD02
:103480000FCD0FC495E80F0084E80F00CAE710AD18
:103490000FCD0FC495E80F0084E80F00C2E700BF0E
:1034A00080778E0630B4054600231C2000E00133EF
:1034B0001C2818D103EB430251000C4A0A4414792A
:1034C000844210D003EB43014A0008498A5AAA42B9
:1034D000EDD803EB43025100044A0A445288AA4241
:1034E000E5D32046E4E730BC704700BF9061001A86
:1034F00082B04FF47A7301930D4A936923F002016D
:1035000092698A4201D00A4A916123F00303094A71
:103510001168094A914201D943F00403044A9361B6
:10352000019B5A1E0192002BFAD102B0704700BFD6
:1035300000000540F860001AFF2C31011230054BE5
:1035400053F8200010F0010F02D1C0F3046070475F
:10355000112070470000054000F11202034B53F8A0
:103560002220034B185C00EA9200704700000540DF
:103570008861001A08B510280AD8DFE800F0440B6B
:103580000D18210924272A2D09093034383C400020
:1035900000203AE01E4838E01E4BD3F82C3103F0EF
:1035A0000703042B01D01C482FE000202DE0194B0D
:1035B000D3F82C3103F00703042B27D0164824E05E
:1035C000164B186821E0164B18681EE0154B18685A
:1035D0001BE0144B586818E000F068F815E0002173
:1035E00000F09AF811E0012100F096F80DE00221B8
:1035F00000F092F809E0032100F08EF805E00421C4
:1036000000F08AF801E04FF4004008BD0648FCE7EE
:10361000001BB7000030044040787D01CC60001AE8
:10362000F860001A7C2B001080F0FA0238B50546CD
:103630000C460879FFF79EFF6061194B2B44194A2D
:10364000934221D818B3802323600023A360E36052
:10365000B5FBF0F32361144A954203D903FB00F054
:10366000A84207D021462846FFF796FEA3688BB1F3
:10367000013BA360236983B1E2680AB1013AE260C9
:10368000013B2361002038BD4FF0FF30FBE74FF0D6
:10369000FF30F8E74FF0FF30F5E74FF0FF30F2E78B
:1036A000103A6BFF1005940BFF5E4C0930B583B0E8
:1036B000174D6C6CC4F30360FFF75CFF154B1B6880
:1036C00001932B6C13F0010F20D0C4F30743C4F314
:1036D0000132C4F30121C4F38015013301320DF12D
:1036E000080C614411F8041C14F0800F08D13DB996
:1036F0004900B3FBF1F3B0FBF2F000FB03F003E091
:10370000B0FBF2F003FB00F003B030BD0020FBE79C
:10371000000005408461001A38B50C460846FFF7E2
:103720000DFF05462046FFF717FF04462846FFF722
:1037300021FF0134B0FBF4F038BDFFFF30B400F1DD
:103740001604A40004F1804404F5A02464681B2836
:1037500013D811291AD00E4D25400AB145F4006541
:103760000BB145F0010545EA01651630800000F116
:10377000804000F5A020456008E044F001041630C8
:10378000800000F1804000F5A020446030BC70470C
:10379000FEF7FFE01B280CD81630800000F18040B7
:1037A00000F5A020406810F0010F04D1C0F30460C0
:1037B0007047112070471120704708B5FFF7EAFFE6
:1037C000FFF7D8FE08BDFFFF71B901210AB141F032
:1037D0000401022B0AD0B0F5A17F0AD3A0F59170A5
:1037E000064B43F8301070470321EFE741F020010A
:1037F000F1E72030024B43F83010704700200540BD
:1038000000100540B0F5A17F09D3094AA0F59170D9
:1038100052F8303043F0010342F830307047054A27
:10382000203052F8303043F0010342F83030704716
:10383000002005400010054010B5B0F5A17F09D368
:10384000A0F591730D4A52F8334014F0010F07D1DF
:10385000002010BD00F12003094A52F83340F4E77C
:10386000FFF720FEFFF7A9FF14F0E00F03D10123BB
:10387000B0FBF3F0EDE70223FAE700BF00200540BC
:103880000010054008B56920FFF7D6FF014B18600E
:1038900008BD00BF502C001070B58AB005460E461A
:1038A00014464CF250330993062818D00023012205
:1038B00029460420FFF742FF4A4A536C43F00103B4
:1038C00053648DF8085001A93046FFF7AFFE464B10
:1038D0009E4216D9019B13F0400F03D0FEE7FFF77D
:1038E00007FEE3E713F0800F05D023F08003019378
:1038F0000025012607E0049B0133049301250026DF
:1039000001E000252E469DF80820019B43EA026352
:10391000059A43EA0243039A43EA0233049A43EACC
:10392000022343F400632F4A53642E4B1B6C13F0A5
:10393000010FFAD00023012209210420FFF7FEFE27
:1039400006B34CF250330993099B5A1E0992002B7F
:10395000FAD1019B43F0800301939DF8082043EACC
:103960000263059A43EA0243039A43EA0233049A44
:1039700043EA022343F400631A4A5364002C2ED115
:103980000AB070BD002DF9D04CF250330993099B59
:103990005A1E0992002BFAD1049B5A1E04929DF8DC
:1039A0000810019B43EA0163059943EA0143039927
:1039B00043EA013343EA022343F40063094A5364B0
:1039C000DCE70A4800EB8401CB788A78497810F864
:1039D0002400FFF7B3FE0134112CF2D9D0E7002404
:1039E000FAE700BF0000054080778E06FC61001AF0
:1039F00010B4436803F0F803302B4CD008D9482B9F
:103A00006CD034D9582B58D0F82B3ED100202BE065
:103A1000102B16D00ED9202B3DD0282B01D0182BDF
:103A200035D18B88002B3ED1CB88002B5ED14B80CB
:103A30002C230FE01BB903234B802C230AE0082B17
:103A400025D10A788B88B3FA83F35B0943EA4203F2
:103A500083603C2383F03C02026003F02C0383610B
:103A60004888FF3818BF01205DF8044B7047382B99
:103A700038D0402B0BD1CA88012A27D93823002AF5
:103A8000E8D14A8023F01003E4E7502B15D001233E
:103A90004B802C23DEE74B7813F0010FC1D10223BA
:103AA0004B802C23D6E78B685A1C8A601B78836076
:103AB0008B88013B8B803C23CCE78268CB685C1C05
:103AC000CC601A70CB88013BCB80D4E74B7813F0E5
:103AD000020F01D13C23D2E73823D0E704234B80E7
:103AE0002C23B7E705234B803C23B3E71C23B1E726
:103AF000FF234B802C23836160230360704738B51C
:103B000004460D46FFF7F4FF002003E02946204657
:103B1000FFF76EFF20B9236813F0080FFBD0F5E71D
:103B200038BD7047034B984201D083207047A520D1
:103B3000704700BF00500C40044B984202D040F246
:103B4000022070474FF4F170704700BF00500C40E6
:103B5000036823F47F43090289B2194301600261BB
:103B6000704770B506460D46FFF7E6FFFFF764FEA7
:103B700002224FF0FF33002100E02146AB420BD977
:103B80004C1C02FB04F3B0FBF3F39D42F6D2FF2C76
:103B9000F3D902320021F1E73046FFF7D9FF70BDBB
:103BA00010B50446FFF7BEFFFFF72CFE2046FFF7D7
:103BB000C3FFFFF727FE636823F0040363602368F5
:103BC00023F0FF0343F00703236002492046FFF779
:103BD000C8FF10BDA0860100012909D1C0EBC000BB
:103BE0008200044B13441A69137DDBB2042BFBD013
:103BF000704700BF5800001030B4436803F0F8036A
:103C0000582B7FD8DFE803F07A7E7E7E7E7E7E7E34
:103C10002F7E7E7E7E7E7E7E2F7E7E7E7E7E7E7E62
:103C2000397E7E7E7E7E7E7E6E7E7E7E7E7E7E7E09
:103C3000397E7E7E7E7E7E7E727E7E7E7E7E7E7EF5
:103C4000767E7E7E7E7E7E7E6C7E7E7E7E7E7E7EAE
:103C50006E7E7E7E7E7E7E7E2D7E7E7E7E7E7E7EE5
:103C60004F003C2320E00A788B68B3FA83F35B09AA
:103C700043EA420383603C2323E08B684BB90B6922
:103C800023B16FF0200303F03C031AE06FF0100340
:103C9000F9E74B685A1C4A601B7883608B68013BCC
:103CA0008B603C230DE02C238468CA68551CCD60D2
:103CB00014700A69013A0A610A69012A01DD23F0D8
:103CC000040383F03C02026023F01002826113F0CF
:103CD000100F19D00B7D022B16D0012030BC70477D
:103CE0003C23E9E705230B752C23EAE701230B7539
:103CF0002C23E6E702230B753C23E2E703230B7535
:103D00002C23DEE73C23DCE70B7D042B01D00020D5
:103D1000E4E700230B75FAE770B50546064EC400CC
:103D2000221A930033449888FFF76CFD641BA300AC
:103D3000F3586C229A6170BD580000102DE9F041D3
:103D40000C460B4EC5002B1A4FEA830806EB0803FE
:103D50009888FFF771FDB0FBF4F056F80830420880
:103D60001A6156F808301A69801A5861BDE8F08166
:103D700058000010C0EBC0039A00094B13441B69A4
:103D800053B1C0EBC0008200054B134498688842D1
:103D900014BF002001207047014B13449960F0E7E5
:103DA0005800001010B504460948E3001B1B9A0098
:103DB000831819698058FFF71FFF40B9C4EBC4038B
:103DC0009A00034B13449B6802212046984710BD7C
:103DD00058000010C0EBC0008300034AD358186895
:103DE000C0F3C000704700BF58000010012915D172
:103DF00038B50446C0EBC0039A00094B13441D6953
:103E00002B7DDBB2042B08D12046FFF7E3FF00280F
:103E1000F6D02046FFF7C6FFF2E738BD704700BF77
:103E20005800001008B50B4A0B4B9A6003F50C7351
:103E30001B6903F47F63202B04D0FFF725F9FFF7FC
:103E4000ABF808BD044AD2F8883043F47003C2F8D6
:103E50008830F2E70000001A00ED00E0044B186023
:103E6000044A136843F0010313600120704700BF48
:103E700090000010001000E070B5044600EB400216
:103E80009300224AD6587569EDB215F0010F0AD099
:103E900028B91F4B1B6813B11E4A10689847032CA2
:103EA00014D0052C1AD015F0200F0ED0736813F023
:103EB000020F0AD02CB9184B1B6813B1174A1068AF
:103EC0009847032C12D0052C18D070BD144B1B68DA
:103ED000002BE6D0134A10689847E2E7124B1B68A4
:103EE000002BE0D0114A10689847DCE7104B1B68A4
:103EF000002BE8D00F4A10689847E4E70E4B1B6888
:103F0000002BE2D00D4A10689847DEE74462001AA1
:103F1000842B0010882B00109C2B0010A02B00106D
:103F20008C2B0010902B0010942B0010982B00105D
:103F3000A42B0010A82B0010AC2B0010B02B0010ED
:103F400041B300EB40039A001E4B134493F90A302F
:103F5000002B18DB03F1604303F56143A02283F8D3
:103F6000002300EB40008200164B134493F90A3003
:103F7000002B25DB03F01F015B0901228A40124957
:103F800041F82320704703F00F03104A1A44A0237E
:103F90001376E6E700EB400082000A4B134493F9E6
:103FA0000A30002B0CDB03F01F015B0901228A4061
:103FB0002033054941F82320BFF34F8FBFF36F8FA4
:103FC000704700BF4462001A00E100E0FCEC00E032
:103FD00010B461B101291CD1DAB101282CD9C11E5C
:103FE000C9B201292DD9052830D0022309E082B1B8
:103FF000012811D9C11EC9B2012912D9052815D02D
:10400000052300EB4000820013498A5851680B4396
:1040100053605DF8044B704710490A6010490B600B
:10402000E8E710490A6010490B60E7E70F490A60AA
:104030000F4A13600523E4E70E490A600E490B603E
:10404000CDE70E490A600E490B60CCE70D490A60C6
:104050000D4A13600223D4E74462001A842B001037
:10406000882B00108C2B0010902B0010942B00102C
:10407000982B00109C2B0010A02B0010A42B0010DC
:10408000A82B0010AC2B0010B02B001000EB400050
:104090008300034AD358586900F00100704700BFFD
:1040A0004462001A00EB40008300034AD358586969
:1040B00000F02000704700BF4462001A00EB40008F
:1040C0008300024AD3581868C0B270474462001A8D
:1040D00000EB40008300024AD3581960704700BFCC
:1040E0004462001A2DE9F84380468946194C450080
:1040F0002A189300E618E7583846FEF7E1FF4946CC
:104100003846FFF707F80723BB603B680123FB65D0
:1041100030797379B27942F018020F4903EB4013FA
:1041200041F82320F079337A727A42F0D00203EB1F
:10413000401341F82320B8F1010F01D0BDE8F88306
:10414000064AD36C43F03003D3641A22C1F8082323
:10415000F4E700BF4462001A006008400010084005
:1041600038B505460C46FFF791FF034608B91846D7
:1041700038BD2846FFF7A2FF20700123F7E710B5EE
:1041800082B00C460B78042B36D8DFE803F003101E
:104190002F353200D1E9042301F1180000F00CFBA7
:1041A0000023638101232370207802B010BD0DF13C
:1041B0000701FFF7D5FF30B162686389D15C9DF8D4
:1041C0000720914208D004F1180000F005FB0028F8
:1041D000EAD004232370E7E701339BB2638122898D
:1041E000013A9342EFD102232370ECE700230B70D6
:1041F000DAE700230B70D7E700230B70D4E710B584
:104200008CB0044600208DF800000191ADF8082024
:10421000DDE90E23CDE90423022806D0042804D0CA
:1042200069462046FFF7ABFFF6E7042802D00120DD
:104230000CB010BD0020FBE738B504460D46204603
:10424000FFF730FF0028FAD029462046FFF740FF4D
:1042500038BD38B505460C46217821B12846FFF710
:10426000EBFF0134F8E738BD08B50320FFF704FE83
:1042700008BD08B50520FFF7FFFD08BD08B5FDF72F
:104280002FFE002108BDFFFF38B504460D46084B40
:1042900040F60802C3F8842CFFF73EFD294620466D
:1042A000FFF74CFD03492046FFF764FD012038BDB0
:1042B00000600840ED3D001A08B10020704700B5CD
:1042C00085B08DF8001000218DF80110ADF80210B6
:1042D0000292ADF804300391ADF806106946054826
:1042E000FFF70DFC18B1012005B05DF804FB0020BC
:1042F000FAE700BF00100A4008B10020704708B577
:10430000FFF7C2FF08BD08B10020704710B582B0AA
:104310009DF810400094FFF7CFFF02B010BDFEE7FC
:104320007047FFFF38B5002401E00134E4B2032CEC
:1043300012D865B2094B1A6804F00F0101238B40B3
:104340001A42F2D0064B53F824300020984701233C
:10435000AB40024A1360E8E738BD00BF00400840A8
:10436000A000001038B5002401E00134E4B2032CB1
:1043700013D865B2094B1A6804F00F0101238B4072
:104380001A42F2D0231D064A52F8233000209847E3
:104390000123AB40014A1360E7E738BD00500840F5
:1043A000A000001038B5002401E00134E4B2032C71
:1043B00014D865B20A4B1A6804F00F0101238B4030
:1043C0001A42F2D004F10803064A52F823300020C2
:1043D00098470123AB40024A1360E6E738BD00BFAF
:1043E00000300C40A000001038B5002401E001347A
:1043F000E4B2032C14D865B20A4B1A6804F00F011A
:1044000001238B401A42F2D004F10C03064A52F801
:104410002330002098470123AB40024A1360E6E7AF
:1044200038BD00BF00400C40A000001030B40B4D60
:1044300000EB80002C182856087094F901101170B8
:1044400094F902201A7094F90320029B1A7094F9CF
:104450000420039B1A7030BC704700BF8C62001AA6
:1044600010F1020F00F0C780B0F1FF3F00F0C580EF
:1044700070B584B00C4600238DF80F308DF80E30E7
:104480008DF80D308DF80C308DF80B300DF10B03DD
:10449000019303AB00930DF10D030DF10E020DF12D
:1044A0000F01FFF7C3FF052C00F2A980DFE804F03D
:1044B0000981274563035348FFF733FB012004B00C
:1044C00070BD9DF80F109DF80E309DF80D2042F044
:1044D000D00203EB41134C4941F823209DF80C30E6
:1044E0009DF90B20012000FA02F1464C03F5006310
:1044F00054F8232022EA010244F82320DFE79DF844
:104500000F109DF80E309DF80D2042F0C00203EB15
:1045100041133D4941F823209DF80C309DF90B20B3
:10452000012000FA02F1374C03F5006354F8232010
:1045300022EA010244F82320C1E79DF80F109DF8FC
:104540000E309DF80D2042F0D80203EB41132E49A6
:1045500041F823209DF80C309DF90B20012000FA32
:1045600002F1284C03F5006354F8232022EA0102EB
:1045700044F82320A3E79DF80F109DF80E309DF816
:104580000D2042F0C80203EB41131F4941F82320DC
:104590009DF80C309DF90B20012000FA02F1194C16
:1045A00003F5006354F8232022EA010244F8232093
:1045B00085E79DF80F109DF80E309DF80D2042F014
:1045C000D00203EB4113104941F823209DF80C4021
:1045D0009DF90B20012000FA02F10A4B04F5006559
:1045E00053F82560314343F82510D2B203EB44134E
:1045F0000021995463E70020704700207047002095
:104600005DE700BF00400F400060084010F1020F5E
:104610002DD0B0F1FF3F2CD010B584B00C46002354
:104620008DF80F308DF80E308DF80D308DF80C3080
:104630008DF80B300DF10B03019303AB00930DF1DB
:104640000D030DF10E020DF10F01FFF7EFFE9DF8C6
:104650000C309DF80B20211C18BF01215B0103F1D8
:10466000402303F570239954012004B010BD0020AD
:10467000704700207047FFFF08B5044B1B681B689C
:10468000DB68034A1068984708BD00BF542C00102F
:10469000B42B001008B5FFF7F5F8184B1868FFF7B2
:1046A000DDFB05210020FFF7DBFE00212420FFF7C2
:1046B000D7FE00212520FFF7D3FE00212620FFF79B
:1046C000CFFE00212720FFF7CBFE01212820FFF796
:1046D000C7FE01212920FFF7C3FE01212A20FFF791
:1046E000BFFE01212B20FFF7BBFE01212C20FFF78D
:1046F000B7FE01212D20FFF7B3FE08BD502C00109E
:10470000F0B484B04FEA810C83004CEA90721B181D
:1047100041EB0202110241EA13611802C61A61EB71
:1047200002073B0143EA1673320116461F46CDE9E4
:104730000067DDE90023CDE90223DDE9022313430D
:1047400008D0DDE9022312F1FF3443F1FF35CDE952
:104750000245F2E704B0F0BC704730B585B00318ED
:1047600041EB0102181842EB01010B0143EA1073FF
:104770000201801843EB01018B0043EA9073820031
:10478000104619460A22002300F092F9CDE90001F3
:10479000DDE90023CDE90223DDE90223134308D03C
:1047A000DDE9022312F1FF3443F1FF35CDE9024583
:1047B000F2E705B030BDFFFF10B5044610461946BC
:1047C000044BD3E9002300F073F9C4E9020100238C
:1047D000237410BD98000010F8B50446057C3DB95F
:1047E000FFF74CFDC4E90001012323742846F8BDFE
:1047F000FFF744FD23686268C61A61EB0207D4E93B
:1048000002239F4208BF964203D30023237401254D
:10481000ECE70025EAE7FFFF00B585B0094B18700B
:10482000094B1B7818438DF80F00012300930DF1FD
:104830000F02064909780020FFF765FD05B05DF815
:1048400004FB00BFC32B0010C22B0010E0000010BF
:1048500008B5084B1B7839B1012202FA00F0034376
:10486000D8B2FFF7D9FF08BD012101FA00F023EA11
:104870000000F6E7C32B001008B5FFF7E9FF08BDFD
:1048800010B5044600F080010720FFF7F5FF04F0A3
:1048900040010620FFF7F0FF04F020010520FFF79C
:1048A000EBFF04F010010420FFF7E6FF10BD08B590
:1048B00001210220FFF7E0FF19200021FFF74DFF43
:1048C00000210220FFF7D8FF08BDFFFF00B585B02B
:1048D0008DF80F00064B1870012300930DF10F02A5
:1048E000044909780020FFF70EFD05B05DF804FBD0
:1048F000C22B0010E000001008B5044B1970002016
:10490000FFF7E4FF0020FFF787FF08BDE00000107D
:1049100010B5044600F0F000FFF7B2FF0021084692
:10492000FFF7AAFF00210120FFF7A6FFFFF7BFFF57
:1049300019200021FFF711FF200100F0F000FFF720
:104940009FFFFFF7B4FF10BD10B5044600F0F00064
:10495000FFF796FF01210020FFF78EFF00210120C5
:10496000FFF78AFFFFF7A3FF200100F0F000FFF739
:1049700087FFFFF79CFF10BD82B2114B1B889A4244
:1049800004D28BB20E4A5288934200D3704730B59E
:1049900083B00D4604460B4B1B68019302AB0B44DE
:1049A00013F8040C2044C0B2FFF7B2FF64200021CA
:1049B000FFF7D3FE024B1C725D7203B030BD00BF27
:1049C000B82B00107463001A08B50120FFF7A0FF90
:1049D00003200021FFF794FE08BD08B540F00C004D
:1049E000FFF796FF03200021FFF78AFE08BD38B5C8
:1049F00005460024285D20B1FFF7A6FF0134E4B28C
:104A0000F8E738BD08B5FFF7DFFF00210846FFF7DC
:104A1000B3FF08BD38B5254D28806980AA80EB809A
:104A200000242C726C7227212046FFF765FF0121BC
:104A30000320FFF721FF21460120FFF71DFF21463C
:104A40002046FFF719FF21460220FFF715FF33200C
:104A5000FFF75EFF2D200021FFF77FFE3220FFF7DA
:104A600057FF2D200021FFF778FE2820FFF750FF89
:104A70002D200021FFF771FE0E20FFF749FF2D20AA
:104A80000021FFF76AFEFFF79FFF0620FFF740FFB8
:104A90002D200021FFF761FE01200021FFF730FEED
:104AA0002046FFF79AFFFFF7ADFF38BDB82B001087
:104AB00053B94AB9002908BF00281CBF4FF0FF3185
:104AC0004FF0FF3000F074B9ADF1080C6DE904CE81
:104AD00000F006F8DDF804E0DDE9022304B07047D9
:104AE0002DE9F047089E04468846002B40F085805B
:104AF0008A42154648D9B2FA82F24AB1C2F1200779
:104B000001FA02F320FA07F7954047EA03089440B8
:104B10004FEA154E230CB8FBFEF71FFA85FC0EFB7F
:104B2000178843EA084307FB0CF1994209D9EB18AF
:104B300007F1FF3080F0E380994240F2E080023FCD
:104B40002B445B1AA4B2B3FBFEF00EFB103344EA15
:104B5000034400FB0CFCA44509D92C1900F1FF33D8
:104B600080F0CB80A44540F2C88002382C4440EA53
:104B70000740A4EB0C0400271EB1D4400023C6E973
:104B800000433946BDE8F087002A53D0B2FA82F2DA
:104B9000002A40F0B680491B4FEA154E1FFA85F8EF
:104BA0000127B1FBFEFC230C0EFB1C1143EA014361
:104BB00008FB0CF1994207D9EB180CF1FF3002D237
:104BC000994200F2EC808446591AA3B2B1FBFEF080
:104BD0000EFB101443EA044408FB00F8A04507D973
:104BE0002C1900F1FF3302D2A04500F2DC801846F8
:104BF000A4EB080440EA0C40BEE78B4208D9002E23
:104C000078D00027C6E9000138463946BDE8F0876C
:104C1000B3FA83F77FB98B4202D3824200F2BD80A0
:104C2000841A61EB030301209846002EA9D0C6E93F
:104C30000048A6E7FFDEC7F12005BB4022FA05FCCD
:104C40004CEA030C01FA07F420FA05F821FA05F3FF
:104C50004FEA1C4E48EA0404B3FBFEF9210C0EFB9C
:104C600019331FFA8CF841EA034309FB08FA9A4505
:104C700002FA07F200FA07F10BD91CEB030309F162
:104C8000FF3080F088809A4540F28580A9F10209C2
:104C90006344A3EB0A03A4B2B3FBFEF00EFB103394
:104CA00044EA034400FB08F8A04508D91CEB0404BF
:104CB00000F1FF336BD2A04569D90238644440EA61
:104CC0000940A4EB0804A0FB02894C45C6464B46AC
:104CD00054D351D0002E69D0B1EB0E0264EB030423
:104CE00004FA05F522FA07F3FC401D43C6E9005417
:104CF000002746E73746304643E7184637E707467A
:104D00001FE7C2F1200320FA03F7954001FA02F0F1
:104D100021FA03F34FEA154E3843010CB3FBFEF7BB
:104D20001FFA85F80EFB173341EA034107FB08F32E
:104D30008B4204FA02F407D9691807F1FF3C28D224
:104D40008B4226D9023F2944CB1A81B2B3FBFEF035
:104D50000EFB103341EA034100FB08F38B4207D9F5
:104D6000691800F1FF3C10D28B420ED90238294459
:104D7000C91A40EA074714E74145ABD2B8EB020E27
:104D800069EB0C0201381346A4E76046F0E71846C9
:104D900095E76746D8E781467BE7384645E7ACF1BB
:104DA000020C2B4410E702382C4421E73746E8E692
:104DB000704700BF8A892DE9F041054610070C466F
:104DC00058D44B68002B05DC0B6C002B02DC002058
:104DD000BDE8F081E66A002EF9D0002312F480527B
:104DE0002F682B6032D0606DA3895A0705D56368A0
:104DF000C01A636B0BB1236CC01A00230246E66A2B
:104E0000216A2846B047431CA38906D129681D2979
:104E100049D82A4ACA40D60745D500226260D9043B
:104E20002269226004D5421C01D12B6803B9606558
:104E3000616B2F600029CAD004F14403994202D06B
:104E4000284600F0ABF900206063C1E7216A012326
:104E50002846B047411CC7D12B68002BC4D01D2B5E
:104E600001D0162B01D12F60B1E7A38943F0400395
:104E7000A381ADE70F69002FA9D093070E6808BF83
:104E80004B690F6018BF0023A6EB07088B60B8F1D1
:104E9000000F9CDD43463A46216AA66A2846B04781
:104EA000002806DCA38943F04003A3814FF0FF30C4
:104EB0008EE70744A8EB0008E9E700BF01004020A7
:104EC00038B50B6905460C4613B90025284638BD90
:104ED00018B183690BB900F087F8144B9C421BD1C1
:104EE0006C68B4F90C30002BEFD0626ED00704D49C
:104EF000990502D4A06D00F038F928462146FFF745
:104F000059FF636EDA070546E0D4A3899B05DDD41B
:104F1000A06D00F02BF9D9E7054B9C4201D1AC689C
:104F2000DFE7044B9C4208BFEC68DAE79863001A9D
:104F3000B863001A7863001A002310B50446C0E96C
:104F40000033836081814366C281C0E90433836199
:104F5000194608225C3000F018F9054B6362054BD6
:104F6000A362054BE362054B2462236310BD00BFBF
:104F7000C159001AE359001A1B5A001A3F5A001A65
:104F8000014900F0AFB800BFC14E001A70B54A1E0B
:104F9000682555430E4605F1740100F04DF90446AD
:104FA00040B10021C0E900160C30A06005F1680294
:104FB00000F0EBF8204670BD014800F0D6B800BF05
:104FC000602C0010014800F0D1B800BF602C001028
:104FD000014800F0CAB800BF5B2C0010014800F087
:104FE000C5B800BF5B2C001010B50446FFF7F0FFFA
:104FF000A3691BB1BDE81040FFF7F0BFC4E912334D
:105000002365134B134A1B68A262A34204BF01230A
:10501000A361204600F020F86060204600F01CF8F4
:10502000A060204600F018F80022E06004216068CB
:10503000FFF782FF01220921A068FFF77DFF02220E
:105040001221E068FFF778FF0123A361D2E700BFD8
:10505000D863001A814F001AF8B50746FFF7ACFF76
:105060001E4B1E68B36913B93046FFF7BDFF4836C3
:10507000D6E90134013B03D533680BB33668F7E753
:10508000B4F90C50D5B9164BE36004F158006566CD
:1050900000F06AF8FFF796FF2560C4E90155C4E9FE
:1050A0000455A5610822294604F15C0000F06DF862
:1050B000C4E90D55C4E912552046F8BD6834D9E756
:1050C00004213846FFF762FF044630600028D5D13E
:1050D000FFF778FF0C233B60EEE700BFD863001AB0
:1050E0000100FFFF2DE9F8438046894600F148049E
:1050F000002614B93046BDE8F883D4E90175013FB4
:1051000001D52468F5E7AB89012B07D9B5F90E3035
:10511000013303D029464046C84706436835EEE7C9
:1051200070B50D4D0D4C641BA4100026A64209D18C
:105130000B4D0C4CFBF73BFE641BA4100026A64253
:1051400005D170BD55F8043B98470136EEE755F898
:10515000043B98470136F2E71064001A1064001A05
:105160001064001A1464001A7047704770470A44AC
:10517000914200F1FF3300D1704710B511F8014B97
:1051800003F8014F9142F9D110BD02440346934206
:1051900000D1704703F8011BF9E7FFFF38B505465A
:1051A000002945D051F8043C0C1F002BB8BFE4186F
:1051B00000F0CEFD1F4A1368104633B963601460D7
:1051C0002846BDE8384000F0C9BDA3420CD921688B
:1051D0006218934204BF1A685B68636004BF521888
:1051E00022600460ECE713465A680AB1A242FAD979
:1051F00019685818A0420BD12068014458188242FF
:105200001960DDD1106852685A6001441960D7E70F
:1052100002D90C232B60D3E7206821188A4204BFEF
:1052200011685268626004BF091821605C60C7E7BA
:1052300038BD00BFC42B0010F8B5CD1C25F0030508
:1052400008350C2D38BF0C25002D064601DBA94280
:1052500003D90C2333600020F8BD00F079FD21490B
:105260000A6814469CB9204F3B6823B92146304652
:10527000FBF7F2FD386029463046FBF7EDFD431C95
:1052800023D10C233360304600F068FDE3E7236848
:105290005B1B17D40B2B03D923601C44256004E04F
:1052A0006368A2420CBF0B605360304600F056FDAD
:1052B00004F10B00231D20F00700C21ACCD01B1AEA
:1052C000A350C9E722466468CCE7C41C24F0030459
:1052D000A042E3D0211A3046FBF7BEFD0130DDD1FC
:1052E000CFE700BFC42B0010C82B00109368013B10
:1052F000002B10B4936008DA9469A34201DB0A29F9
:1053000003D15DF8044B00F0AFBB1368581C10606C
:10531000197008465DF8044B7047F8B506460F460D
:105320001446D518AC4201D1002007E03A4614F8E3
:10533000011B3046FFF7DAFF431CF3D1F8BDFFFF36
:105340002DE9F04F0D469DB014461E46074618B194
:1053500083690BB9FFF748FE854B9D421BD17D68E1
:105360006B6ED90705D4AB899A0502D4A86DFFF7F7
:10537000FCFEAB891B0701D52B69EBB929463846E2
:1053800000F0C4FBC0B16B6ED8070ED54FF0FF30F4
:105390001DB0BDE8F08F774B9D4201D1BD68DFE7BE
:1053A000754B9D4208BFFD68DAE7AB899905EDD4DE
:1053B000A86DFFF7DBFEE9E70023099320238DF8B2
:1053C0002930DFF8B891039630238DF82A304FF05A
:1053D000010A23461E4613F8012B0AB1252AF9D1EA
:1053E000B6EB040B0BD05B46224629463846FFF746
:1053F00094FF013000F0A380099B5B44099333784C
:10540000002B00F09C8000234FF0FF32CDE90523F4
:105410000136049307938DF853301A9334460522CE
:1054200014F8011B554800F043FC049BC0B9DA0690
:1054300044BF20228DF85320180744BF2B228DF83B
:10544000532032782A2A13D0079A344600200A269D
:10545000214611F8013B303B092B4BD970B914E0C0
:10546000A0EB09000AFA00F0184304902646D5E79D
:10547000039A111D12680391002A01DB079204E0D0
:10548000524243F002030792049323782E2B0CD14F
:1054900063782A2B33D1039B1A1D1B680392002BC0
:1054A000B8BF4FF0FF3302340593354E2178032205
:1054B000304600F0FDFB38B14023801B03FA00F0BA
:1054C000049B03430134049314F8011B2D488DF809
:1054D0002810062200F0ECFB00283FD02A4B13BB1B
:1054E000039B073323F0070308330393099B4344CB
:1054F00009936EE706FB023201200C46A8E7002361
:105500000134059319460A26204610F8012B303A3B
:10551000092A03D9002BC8D00591C6E706FB012153
:1055200001230446F0E703AB00932A46174B04A976
:105530003846AFF30080B0F1FF3F8046D6D16B6EA6
:10554000D90705D4AB899A0502D4A86DFFF70EFEE2
:10555000AB895B063FF51AAF099819E703AB0093D7
:105560002A460A4B04A9384600F088F8E3E700BF52
:105570009863001AB863001A7863001ADC63001A93
:10558000E263001AE663001A000000001B53001AD1
:105590002DE9F04791461F468A680B69DDF82080A7
:1055A0009342B8BF1346C9F8003091F8432006462D
:1055B0000C4612B10133C9F800302368990642BF86
:1055C000D9F800300233C9F80030256815F0060517
:1055D00007D104F1190AE368D9F800209B1AAB42FD
:1055E00028DC94F843302268003318BF0123920668
:1055F0002DD404F1430239463046C047013020D053
:105600002368E568D9F8002003F00603042B08BFDF
:10561000AD1AA36822690CBF25EAE57500259342FF
:10562000C4BF9B1AED184FF000091A344D451AD12A
:10563000002008E00123524639463046C047013079
:1056400003D14FF0FF30BDE8F0870135C3E7E11823
:105650005A1C302081F84300224494F8451082F807
:1056600043100233C5E70123224639463046C0477E
:105670000130E6D009F10109D8E7FFFF2DE9F04339
:1056800006460C4601F14300097E85B06E29984616
:1056900017460C9B00F0BA8024D8632939D00AD869
:1056A000002900F0C380582900F0918004F14205E0
:1056B00084F8421035E0642901D06929F6D12568C3
:1056C0001A6815F0800F02F104012CD012681960DD
:1056D000002A03DA2D23524284F84330DFF8BCC19C
:1056E0000A233FE0732900F0A58008D86F2921D054
:1056F0007029DBD1226842F02002226003E0752984
:1057000018D07829D2D1782284F84520DFF890C1CA
:1057100061E01A68111D1960136884F8423004F1C1
:105720004205012393E01268196015F0400F18BF7D
:1057300012B2CDE7D4F800C01A681CF0800F02F155
:1057400004051D6001D0126803E01CF0400FFAD080
:105750001288DFF848C16F290CBF08230A230021F3
:1057600084F843106568A560002DA2BF216821F070
:10577000040121600AB9002D46D00546B2FBF3F1C1
:1057800003FB112E93421CF80EE005F801ED39D908
:10579000082B0BD12368DA0708D5236962689A427F
:1057A000DEBF302305F8013C05F1FF35401B2061C9
:1057B000CDF800803B4603AA21463046FFF7E8FEBD
:1057C000013049D14FF0FF3005B0BDE8F083DFF87C
:1057D000CCC084F845101D68216855F8042B1D6065
:1057E0000D060BD5CD0744BF41F0200121601AB949
:1057F000236823F0200323601023B0E74B0648BF43
:1058000092B2EFE70A46B9E70546C1E71A68D4F84D
:1058100000C06169151D1D601CF0800F136801D068
:10582000196003E01CF0400FFAD0198000232361B7
:105830000546BDE71A68111D1960156862680021E8
:10584000284600F035FA08B1401B606063682361A8
:10585000002384F84330ABE723692A4639463046B3
:10586000C0470130AED023689B0713D4E068039B88
:105870009842B8BF1846A7E701234A463946304642
:10588000C04701309ED00135E368039A9B1AAB42B2
:10589000F2DCEBE7002504F11909F5E7ED63001AE6
:1058A000FE63001A0FB40A4B13B51C6824B1A36938
:1058B00013B92046FFF798FB05AB049AA168019342
:1058C0002046FFF73DFD02B0BDE8104004B0704730
:1058D000E400001070B50E46054618B183690BB997
:1058E000FFF782FBAB69AC6813B92846FFF77CFB76
:1058F0002C4B9C4220D16C68636EDB0705D4A389D6
:10590000980502D4A06DFFF730FCA38919071DD5B7
:105910002369DBB1013EA36816F8011F013BA360B8
:1059200039BB002B38DA22460A21284600F09CF8C1
:10593000013011D00A2511E01B4B9C4201D1AC680B
:10594000DAE71A4B9C4208BFEC68D5E721462846A7
:1059500000F0DCF80028DDD04FF0FF35636EDA0789
:1059600005D4A3899B0502D4A06DFFF7FFFB284651
:1059700070BD002B04DAA2699A4206DC0A2904D021
:1059800023685A1C22601970C5E72246284600F099
:105990006BF80130BFD1DFE723680A255A1C22606B
:1059A0001D70DBE79863001AB863001A7863001A69
:1059B000024B01461868FFF78DBF00BFE4000010DE
:1059C00010B50C46B1F90E10FBF70AFA0028ABBF70
:1059D000636DA3891B1823F48053ACBF6365A38157
:1059E00010BD2DE9F0411F468B89DB0505460C46AD
:1059F000164605D502230022B1F90E10FBF7EBF98C
:105A0000A389B4F90E1023F48053A38132463B4698
:105A10002846BDE8F041FBF70ABA10B50C46B1F9CB
:105A20000E10FBF7D8F9431CA38915BF606523F45A
:105A3000805343F48053A38118BFA38110BDB1F9F3
:105A40000E10FBF7B5B910B503461A4612F8014B14
:105A50003CB9013B11F8012B03F8012F002AF9D1C1
:105A600010BD1346F1E7FFFFF8B50E461446054694
:105A700018B183690BB9FFF7B7FA214B9C422BD1C0
:105A80006C68A369A360A3891A072FD523696BB338
:105A900023692068C01A6369F6B28342374604DC82
:105AA00021462846FFF70CFA30BBA368013BA360F0
:105AB00023685A1C22601E7063690130834204D03F
:105AC000A389DB0706D50A2E04D121462846FFF715
:105AD000F7F988B93846F8BD0A4B9C4201D1AC6849
